S01700004763634170706C69636174696F6E312E737265635B
S11300000C9434000C943E000C943E000C943E007E
S11300100C943E000C943E000C943E000C943E0064
S11300200C943E000C943E000C943E000C943E0054
S11300300C943E000C943E000C943E000C943E0044
S11300400C943E000C943E000C943E000C943E0034
S11300500C943E000C943E000C943E000C943E0024
S11300600C943E000C943E0011241FBECFEFD8E048
S1130070DEBFCDBF0E944B000C9476000C940000B0
S113008084B18C6284B983E58CBD08958EBD0DB4B2
S113009007FEFDCF08958FEF84B98FEE85B90E94D6
S11300A0400085E00E9446002FEF83ED90E321504D
S11300B080409040E1F700C0000086E90E944600BD
S11300C02FEF83ED90E3215080409040E1F700C092
S11300D000008AEF0E9446002FEF83ED90E3215049
S11300E080409040E1F700C00000DBCFF894FFCFE0
S9030000FC
